{
  "contractName": "Calculator",
  "abi": [
    {
      "constant": true,
      "inputs": [
        {
          "name": "operation",
          "type": "uint256"
        },
        {
          "name": "number1",
          "type": "uint256"
        },
        {
          "name": "number2",
          "type": "uint256"
        }
      ],
      "name": "calculate",
      "outputs": [
        {
          "name": "",
          "type": "uint256"
        }
      ],
      "payable": false,
      "stateMutability": "pure",
      "type": "function"
    },
    {
      "constant": true,
      "inputs": [
        {
          "name": "number1",
          "type": "uint256"
        },
        {
          "name": "number2",
          "type": "uint256"
        }
      ],
      "name": "add",
      "outputs": [
        {
          "name": "",
          "type": "uint256"
        }
      ],
      "payable": false,
      "stateMutability": "pure",
      "type": "function"
    },
    {
      "constant": true,
      "inputs": [
        {
          "name": "number1",
          "type": "uint256"
        },
        {
          "name": "number2",
          "type": "uint256"
        }
      ],
      "name": "subtract",
      "outputs": [
        {
          "name": "",
          "type": "uint256"
        }
      ],
      "payable": false,
      "stateMutability": "pure",
      "type": "function"
    },
    {
      "constant": true,
      "inputs": [
        {
          "name": "number1",
          "type": "uint256"
        },
        {
          "name": "number2",
          "type": "uint256"
        }
      ],
      "name": "multiply",
      "outputs": [
        {
          "name": "",
          "type": "uint256"
        }
      ],
      "payable": false,
      "stateMutability": "pure",
      "type": "function"
    },
    {
      "constant": true,
      "inputs": [
        {
          "name": "number1",
          "type": "uint256"
        },
        {
          "name": "number2",
          "type": "uint256"
        }
      ],
      "name": "divide",
      "outputs": [
        {
          "name": "",
          "type": "uint256"
        }
      ],
      "payable": false,
      "stateMutability": "pure",
      "type": "function"
    }
  ],
  "bytecode": "0x6060604052341561000f57600080fd5b6102968061001e6000396000f30060606040526004361061006d576000357c0100000000000000000000000000000000000000000000000000000000900463ffffffff168063165c4a16146100725780633ef5e445146100b2578063771602f7146100f2578063e97cf88314610132578063f88e9fbf1461017b575b600080fd5b341561007d57600080fd5b61009c60048080359060200190919080359060200190919050506101bb565b6040518082815260200191505060405180910390f35b34156100bd57600080fd5b6100dc60048080359060200190919080359060200190919050506101c8565b6040518082815260200191505060405180910390f35b34156100fd57600080fd5b61011c60048080359060200190919080359060200190919050506101d5565b6040518082815260200191505060405180910390f35b341561013d57600080fd5b61016560048080359060200190919080359060200190919080359060200190919050506101e2565b6040518082815260200191505060405180910390f35b341561018657600080fd5b6101a56004808035906020019091908035906020019091905050610254565b6040518082815260200191505060405180910390f35b6000818302905092915050565b6000818303905092915050565b6000818301905092915050565b600060018414156101fe576101f783836101d5565b905061024d565b60028414156102185761021183836101c8565b905061024d565b60038414156102325761022b83836101bb565b905061024d565b600484141561024c576102458383610254565b905061024d565b5b9392505050565b6000818381151561026157fe5b049050929150505600a165627a7a72305820accee109a7fa435518db4084fe3bc3e195f2435461301efb5537258aed6f8b3c0029",
  "source": "pragma solidity ^0.4.17;\r\n\r\ncontract Calculator {\r\n\r\n    enum Operations { Add, Subtract, Multiply, Divide } \r\n\r\n    function calculate (uint operation, uint number1, uint number2) public pure returns (uint) {\r\n        if (operation == 1) {\r\n            return add(number1, number2);\r\n        }\r\n        if (operation == 2) {\r\n            return subtract(number1, number2);\r\n        }\r\n        if (operation == 3) {\r\n            return multiply(number1, number2);\r\n        }\r\n        if (operation == 4) {\r\n            return divide(number1, number2);\r\n        }\r\n    }\r\n\r\n    function add(uint number1, uint number2) public pure returns (uint) {\r\n        return number1 + number2; \r\n    }\r\n\r\n    function subtract(uint number1, uint number2) public pure returns (uint) {\r\n        return number1 - number2; \r\n    }\r\n\r\n    function multiply(uint number1, uint number2) public pure returns (uint) {\r\n        return number1 * number2; \r\n    }\r\n\r\n    function divide(uint number1, uint number2) public pure returns (uint) {\r\n        return number1 / number2; \r\n    }\r\n}\r\n\r\n",
  "sourcePath": "C:\\Users\\Tom.Andrews\\source\\repos\\CryptoCalc2.0\\contracts\\Calculator.sol",
  "compiler": {
    "name": "solc",
    "version": "0.4.19+commit.c4cbbb05.Emscripten.clang"
  },
  "schemaVersion": "1.0.1",
  "updatedAt": "2018-02-04T17:31:50.670Z"
}